{
  "_format": "hh-sol-artifact-1",
  "contractName": "TicketVerification",
  "sourceName": "contracts/TicketVerification.sol",
  "abi": [
    {
      "inputs": [
        {
          "internalType": "uint256",
          "name": "_ticketPrice",
          "type": "uint256"
        },
        {
          "internalType": "uint256",
          "name": "_totalTickets",
          "type": "uint256"
        }
      ],
      "stateMutability": "nonpayable",
      "type": "constructor"
    },
    {
      "anonymous": false,
      "inputs": [
        {
          "indexed": true,
          "internalType": "address",
          "name": "user",
          "type": "address"
        },
        {
          "indexed": false,
          "internalType": "uint256",
          "name": "ticketId",
          "type": "uint256"
        }
      ],
      "name": "TicketPurchased",
      "type": "event"
    },
    {
      "anonymous": false,
      "inputs": [
        {
          "indexed": true,
          "internalType": "address",
          "name": "user",
          "type": "address"
        },
        {
          "indexed": false,
          "internalType": "uint256",
          "name": "ticketId",
          "type": "uint256"
        }
      ],
      "name": "TicketRefunded",
      "type": "event"
    },
    {
      "anonymous": false,
      "inputs": [
        {
          "indexed": false,
          "internalType": "string",
          "name": "token",
          "type": "string"
        },
        {
          "indexed": false,
          "internalType": "address",
          "name": "storedBy",
          "type": "address"
        }
      ],
      "name": "TokenStored",
      "type": "event"
    },
    {
      "inputs": [],
      "name": "owner",
      "outputs": [
        {
          "internalType": "address",
          "name": "",
          "type": "address"
        }
      ],
      "stateMutability": "view",
      "type": "function"
    },
    {
      "inputs": [
        {
          "internalType": "string",
          "name": "token",
          "type": "string"
        }
      ],
      "name": "purchaseTicket",
      "outputs": [],
      "stateMutability": "payable",
      "type": "function"
    },
    {
      "inputs": [
        {
          "internalType": "string",
          "name": "token",
          "type": "string"
        }
      ],
      "name": "storeToken",
      "outputs": [],
      "stateMutability": "nonpayable",
      "type": "function"
    },
    {
      "inputs": [],
      "name": "ticketPrice",
      "outputs": [
        {
          "internalType": "uint256",
          "name": "",
          "type": "uint256"
        }
      ],
      "stateMutability": "view",
      "type": "function"
    },
    {
      "inputs": [
        {
          "internalType": "uint256",
          "name": "",
          "type": "uint256"
        }
      ],
      "name": "ticketTokens",
      "outputs": [
        {
          "internalType": "string",
          "name": "",
          "type": "string"
        }
      ],
      "stateMutability": "view",
      "type": "function"
    },
    {
      "inputs": [],
      "name": "ticketsSold",
      "outputs": [
        {
          "internalType": "uint256",
          "name": "",
          "type": "uint256"
        }
      ],
      "stateMutability": "view",
      "type": "function"
    },
    {
      "inputs": [],
      "name": "totalTickets",
      "outputs": [
        {
          "internalType": "uint256",
          "name": "",
          "type": "uint256"
        }
      ],
      "stateMutability": "view",
      "type": "function"
    },
    {
      "inputs": [
        {
          "internalType": "address",
          "name": "",
          "type": "address"
        }
      ],
      "name": "userTicketCount",
      "outputs": [
        {
          "internalType": "uint256",
          "name": "",
          "type": "uint256"
        }
      ],
      "stateMutability": "view",
      "type": "function"
    },
    {
      "inputs": [
        {
          "internalType": "string",
          "name": "userToken",
          "type": "string"
        }
      ],
      "name": "verifyToken",
      "outputs": [
        {
          "internalType": "bool",
          "name": "",
          "type": "bool"
        }
      ],
      "stateMutability": "view",
      "type": "function"
    }
  ],
  "bytecode": "0x60806040523480156200001157600080fd5b506040516200111f3803806200111f8339818101604052810190620000379190620000d5565b336000806101000a81548173ffffffffffffffffffffffffffffffffffffffff021916908373ffffffffffffffffffffffffffffffffffffffff1602179055508160018190555080600281905550600060038190555050506200011c565b600080fd5b6000819050919050565b620000af816200009a565b8114620000bb57600080fd5b50565b600081519050620000cf81620000a4565b92915050565b60008060408385031215620000ef57620000ee62000095565b5b6000620000ff85828601620000be565b92505060206200011285828601620000be565b9150509250929050565b610ff3806200012c6000396000f3fe6080604052600436106100855760003560e01c80638da5cb5b116100595780638da5cb5b146101585780638f15024f14610183578063a6b01b45146101ae578063cb87ce67146101ca578063dd11247e1461020757610085565b8062dea6d61461008a5780631209b1f6146100c75780634dd8f902146100f257806383102c411461012f575b600080fd5b34801561009657600080fd5b506100b160048036038101906100ac9190610759565b610232565b6040516100be91906107bd565b60405180910390f35b3480156100d357600080fd5b506100dc6102d1565b6040516100e991906107f1565b60405180910390f35b3480156100fe57600080fd5b5061011960048036038101906101149190610838565b6102d7565b60405161012691906108e4565b60405180910390f35b34801561013b57600080fd5b5061015660048036038101906101519190610759565b610377565b005b34801561016457600080fd5b5061016d61047c565b60405161017a9190610947565b60405180910390f35b34801561018f57600080fd5b506101986104a0565b6040516101a591906107f1565b60405180910390f35b6101c860048036038101906101c39190610759565b6104a6565b005b3480156101d657600080fd5b506101f160048036038101906101ec919061098e565b6105e1565b6040516101fe91906107f1565b60405180910390f35b34801561021357600080fd5b5061021c6105f9565b60405161022991906107f1565b60405180910390f35b600080600090505b6003548110156102c657600560008281526020019081526020016000206040516020016102679190610abe565b604051602081830303815290604052805190602001208360405160200161028e9190610b06565b60405160208183030381529060405280519060200120036102b35760019150506102cc565b80806102be90610b4c565b91505061023a565b50600090505b919050565b60015481565b600560205280600052604060002060009150905080546102f6906109ea565b80601f0160208091040260200160405190810160405280929190818152602001828054610322906109ea565b801561036f5780601f106103445761010080835404028352916020019161036f565b820191906000526020600020905b81548152906001019060200180831161035257829003601f168201915b505050505081565b60008054906101000a900473ffffffffffffffffffffffffffffffffffffffff1673ffffffffffffffffffffffffffffffffffffffff163373ffffffffffffffffffffffffffffffffffffffff1614610405576040517f08c379a00000000000000000000000000000000000000000000000000000000081526004016103fc90610c06565b60405180910390fd5b8060056000600354815260200190815260200160002090816104279190610dbd565b506003600081548092919061043b90610b4c565b91905055507fe43a2f73b44a0f2f4b0c1e5637156e8e0b1f35e67954cf3ae2713d1830394eb78133604051610471929190610e8f565b60405180910390a150565b60008054906101000a900473ffffffffffffffffffffffffffffffffffffffff1681565b60035481565b60015434146104ea576040517f08c379a00000000000000000000000000000000000000000000000000000000081526004016104e190610f31565b60405180910390fd5b60025460035410610530576040517f08c379a000000000000000000000000000000000000000000000000000000000815260040161052790610f9d565b60405180910390fd5b600460003373ffffffffffffffffffffffffffffffffffffffff1673ffffffffffffffffffffffffffffffffffffffff168152602001908152602001600020600081548092919061058090610b4c565b91905055503373ffffffffffffffffffffffffffffffffffffffff167f0668f5b446eb814fe35b3206f43f14bd8567ba04ddaf7a3ee56516929ab22ccb6003546040516105cd91906107f1565b60405180910390a26105de81610377565b50565b60046020528060005260406000206000915090505481565b60025481565b6000604051905090565b600080fd5b600080fd5b600080fd5b600080fd5b6000601f19601f8301169050919050565b7f4e487b7100000000000000000000000000000000000000000000000000000000600052604160045260246000fd5b6106668261061d565b810181811067ffffffffffffffff821117156106855761068461062e565b5b80604052505050565b60006106986105ff565b90506106a4828261065d565b919050565b600067ffffffffffffffff8211156106c4576106c361062e565b5b6106cd8261061d565b9050602081019050919050565b82818337600083830152505050565b60006106fc6106f7846106a9565b61068e565b90508281526020810184848401111561071857610717610618565b5b6107238482856106da565b509392505050565b600082601f8301126107405761073f610613565b5b81356107508482602086016106e9565b91505092915050565b60006020828403121561076f5761076e610609565b5b600082013567ffffffffffffffff81111561078d5761078c61060e565b5b6107998482850161072b565b91505092915050565b60008115159050919050565b6107b7816107a2565b82525050565b60006020820190506107d260008301846107ae565b92915050565b6000819050919050565b6107eb816107d8565b82525050565b600060208201905061080660008301846107e2565b92915050565b610815816107d8565b811461082057600080fd5b50565b6000813590506108328161080c565b92915050565b60006020828403121561084e5761084d610609565b5b600061085c84828501610823565b91505092915050565b600081519050919050565b600082825260208201905092915050565b60005b8381101561089f578082015181840152602081019050610884565b60008484015250505050565b60006108b682610865565b6108c08185610870565b93506108d0818560208601610881565b6108d98161061d565b840191505092915050565b600060208201905081810360008301526108fe81846108ab565b905092915050565b600073ffffffffffffffffffffffffffffffffffffffff82169050919050565b600061093182610906565b9050919050565b61094181610926565b82525050565b600060208201905061095c6000830184610938565b92915050565b61096b81610926565b811461097657600080fd5b50565b60008135905061098881610962565b92915050565b6000602082840312156109a4576109a3610609565b5b60006109b284828501610979565b91505092915050565b7f4e487b7100000000000000000000000000000000000000000000000000000000600052602260045260246000fd5b60006002820490506001821680610a0257607f821691505b602082108103610a1557610a146109bb565b5b50919050565b600081905092915050565b60008190508160005260206000209050919050565b60008154610a48816109ea565b610a528186610a1b565b94506001821660008114610a6d5760018114610a8257610ab5565b60ff1983168652811515820286019350610ab5565b610a8b85610a26565b60005b83811015610aad57815481890152600182019150602081019050610a8e565b838801955050505b50505092915050565b6000610aca8284610a3b565b915081905092915050565b6000610ae082610865565b610aea8185610a1b565b9350610afa818560208601610881565b80840191505092915050565b6000610b128284610ad5565b915081905092915050565b7f4e487b7100000000000000000000000000000000000000000000000000000000600052601160045260246000fd5b6000610b57826107d8565b91507fffffffffffffffffffffffffffffffffffffffffffffffffffffffffffffffff8203610b8957610b88610b1d565b5b600182019050919050565b7f4f6e6c7920746865206f776e65722063616e2063616c6c20746869732066756e60008201527f6374696f6e000000000000000000000000000000000000000000000000000000602082015250565b6000610bf0602583610870565b9150610bfb82610b94565b604082019050919050565b60006020820190508181036000830152610c1f81610be3565b9050919050565b60006020601f8301049050919050565b600082821b905092915050565b600060088302610c737fffffffffffffffffffffffffffffffffffffffffffffffffffffffffffffffff82610c36565b610c7d8683610c36565b95508019841693508086168417925050509392505050565b6000819050919050565b6000610cba610cb5610cb0846107d8565b610c95565b6107d8565b9050919050565b6000819050919050565b610cd483610c9f565b610ce8610ce082610cc1565b848454610c43565b825550505050565b600090565b610cfd610cf0565b610d08818484610ccb565b505050565b5b81811015610d2c57610d21600082610cf5565b600181019050610d0e565b5050565b601f821115610d7157610d4281610a26565b610d4b84610c26565b81016020851015610d5a578190505b610d6e610d6685610c26565b830182610d0d565b50505b505050565b600082821c905092915050565b6000610d9460001984600802610d76565b1980831691505092915050565b6000610dad8383610d83565b9150826002028217905092915050565b610dc682610865565b67ffffffffffffffff811115610ddf57610dde61062e565b5b610de982546109ea565b610df4828285610d30565b600060209050601f831160018114610e275760008415610e15578287015190505b610e1f8582610da1565b865550610e87565b601f198416610e3586610a26565b60005b82811015610e5d57848901518255600182019150602085019450602081019050610e38565b86831015610e7a5784890151610e76601f891682610d83565b8355505b6001600288020188555050505b505050505050565b60006040820190508181036000830152610ea981856108ab565b9050610eb86020830184610938565b9392505050565b7f5061796d656e742073686f756c6420626520657175616c20746f20746865207460008201527f69636b6574207072696365000000000000000000000000000000000000000000602082015250565b6000610f1b602b83610870565b9150610f2682610ebf565b604082019050919050565b60006020820190508181036000830152610f4a81610f0e565b9050919050565b7f416c6c207469636b6574732068617665206265656e20736f6c64000000000000600082015250565b6000610f87601a83610870565b9150610f9282610f51565b602082019050919050565b60006020820190508181036000830152610fb681610f7a565b905091905056fea2646970667358221220c4d4482e76d3acea069614cbfc182d6e8bff4a2bc8d944d392289c640da7845664736f6c63430008110033",
  "linkReferences": {},
  "deployedLinkReferences": {}
}